{
  "contractName": "DoctorManagement",
  "abi": [
    {
      "anonymous": false,
      "inputs": [
        {
          "indexed": false,
          "internalType": "uint256",
          "name": "doctorID",
          "type": "uint256"
        },
        {
          "indexed": false,
          "internalType": "string",
          "name": "name",
          "type": "string"
        },
        {
          "indexed": false,
          "internalType": "string",
          "name": "phone",
          "type": "string"
        },
        {
          "indexed": false,
          "internalType": "string",
          "name": "email",
          "type": "string"
        },
        {
          "indexed": false,
          "internalType": "string",
          "name": "spec",
          "type": "string"
        },
        {
          "indexed": false,
          "internalType": "uint8",
          "name": "expr_yrs",
          "type": "uint8"
        },
        {
          "indexed": false,
          "internalType": "uint8",
          "name": "avg_rating",
          "type": "uint8"
        },
        {
          "indexed": false,
          "internalType": "uint256",
          "name": "first_time_fee",
          "type": "uint256"
        },
        {
          "indexed": false,
          "internalType": "uint256",
          "name": "recurring_fee",
          "type": "uint256"
        }
      ],
      "name": "NewDoctor",
      "type": "event"
    },
    {
      "anonymous": false,
      "inputs": [
        {
          "indexed": false,
          "internalType": "uint256",
          "name": "HospitalID",
          "type": "uint256"
        },
        {
          "indexed": false,
          "internalType": "string",
          "name": "name",
          "type": "string"
        },
        {
          "indexed": false,
          "internalType": "string",
          "name": "phone",
          "type": "string"
        },
        {
          "indexed": false,
          "internalType": "string",
          "name": "email",
          "type": "string"
        },
        {
          "indexed": false,
          "internalType": "string",
          "name": "h_addr",
          "type": "string"
        },
        {
          "indexed": false,
          "internalType": "uint16",
          "name": "est_since",
          "type": "uint16"
        },
        {
          "indexed": false,
          "internalType": "uint16",
          "name": "total_docs",
          "type": "uint16"
        },
        {
          "indexed": false,
          "internalType": "uint8",
          "name": "avg_rating",
          "type": "uint8"
        }
      ],
      "name": "NewHospital",
      "type": "event"
    },
    {
      "constant": true,
      "inputs": [
        {
          "internalType": "uint256",
          "name": "",
          "type": "uint256"
        }
      ],
      "name": "doctorToHospital",
      "outputs": [
        {
          "internalType": "uint256",
          "name": "",
          "type": "uint256"
        }
      ],
      "payable": false,
      "stateMutability": "view",
      "type": "function"
    },
    {
      "constant": true,
      "inputs": [
        {
          "internalType": "uint256",
          "name": "",
          "type": "uint256"
        }
      ],
      "name": "doctors",
      "outputs": [
        {
          "internalType": "address payable",
          "name": "doctor_account",
          "type": "address"
        },
        {
          "internalType": "string",
          "name": "name",
          "type": "string"
        },
        {
          "internalType": "string",
          "name": "phone",
          "type": "string"
        },
        {
          "internalType": "string",
          "name": "email",
          "type": "string"
        },
        {
          "internalType": "string",
          "name": "specialization",
          "type": "string"
        },
        {
          "internalType": "uint8",
          "name": "experience_yrs",
          "type": "uint8"
        },
        {
          "internalType": "uint8",
          "name": "avg_rating",
          "type": "uint8"
        },
        {
          "internalType": "uint256",
          "name": "first_time_fee",
          "type": "uint256"
        },
        {
          "internalType": "uint256",
          "name": "recurring_fee",
          "type": "uint256"
        }
      ],
      "payable": false,
      "stateMutability": "view",
      "type": "function"
    },
    {
      "constant": true,
      "inputs": [
        {
          "internalType": "uint256",
          "name": "",
          "type": "uint256"
        }
      ],
      "name": "hospitals",
      "outputs": [
        {
          "internalType": "string",
          "name": "name",
          "type": "string"
        },
        {
          "internalType": "string",
          "name": "phone",
          "type": "string"
        },
        {
          "internalType": "string",
          "name": "email",
          "type": "string"
        },
        {
          "internalType": "string",
          "name": "h_address",
          "type": "string"
        },
        {
          "internalType": "uint16",
          "name": "established_since",
          "type": "uint16"
        },
        {
          "internalType": "uint16",
          "name": "total_doctors",
          "type": "uint16"
        },
        {
          "internalType": "uint8",
          "name": "avg_rating",
          "type": "uint8"
        }
      ],
      "payable": false,
      "stateMutability": "view",
      "type": "function"
    },
    {
      "constant": true,
      "inputs": [
        {
          "internalType": "address",
          "name": "",
          "type": "address"
        }
      ],
      "name": "isDoctor",
      "outputs": [
        {
          "internalType": "bool",
          "name": "",
          "type": "bool"
        }
      ],
      "payable": false,
      "stateMutability": "view",
      "type": "function"
    },
    {
      "constant": true,
      "inputs": [
        {
          "internalType": "string",
          "name": "",
          "type": "string"
        }
      ],
      "name": "specializedDoctorCount",
      "outputs": [
        {
          "internalType": "uint256",
          "name": "",
          "type": "uint256"
        }
      ],
      "payable": false,
      "stateMutability": "view",
      "type": "function"
    },
    {
      "constant": true,
      "inputs": [
        {
          "internalType": "string",
          "name": "_specialization",
          "type": "string"
        }
      ],
      "name": "spec_to_doc",
      "outputs": [
        {
          "internalType": "uint256[]",
          "name": "",
          "type": "uint256[]"
        }
      ],
      "payable": false,
      "stateMutability": "view",
      "type": "function"
    },
    {
      "constant": false,
      "inputs": [
        {
          "internalType": "string",
          "name": "_name",
          "type": "string"
        },
        {
          "internalType": "string",
          "name": "_phone",
          "type": "string"
        },
        {
          "internalType": "string",
          "name": "_email",
          "type": "string"
        },
        {
          "internalType": "string",
          "name": "_spec",
          "type": "string"
        },
        {
          "internalType": "uint8",
          "name": "_exp_yrs",
          "type": "uint8"
        },
        {
          "internalType": "uint256",
          "name": "_hid",
          "type": "uint256"
        },
        {
          "internalType": "uint256",
          "name": "_first_time_fee",
          "type": "uint256"
        },
        {
          "internalType": "uint256",
          "name": "_recurring_fee",
          "type": "uint256"
        }
      ],
      "name": "add_doc",
      "outputs": [],
      "payable": false,
      "stateMutability": "nonpayable",
      "type": "function"
    },
    {
      "constant": false,
      "inputs": [
        {
          "internalType": "string",
          "name": "_name",
          "type": "string"
        },
        {
          "internalType": "string",
          "name": "_phone",
          "type": "string"
        },
        {
          "internalType": "string",
          "name": "_email",
          "type": "string"
        },
        {
          "internalType": "string",
          "name": "_h_address",
          "type": "string"
        },
        {
          "internalType": "uint16",
          "name": "_est_since",
          "type": "uint16"
        }
      ],
      "name": "add_hospital",
      "outputs": [],
      "payable": false,
      "stateMutability": "nonpayable",
      "type": "function"
    },
    {
      "constant": false,
      "inputs": [
        {
          "internalType": "string",
          "name": "_name",
          "type": "string"
        },
        {
          "internalType": "string",
          "name": "_phone",
          "type": "string"
        },
        {
          "internalType": "string",
          "name": "_email",
          "type": "string"
        },
        {
          "internalType": "string",
          "name": "_spec",
          "type": "string"
        },
        {
          "internalType": "uint8",
          "name": "_experience_yrs",
          "type": "uint8"
        },
        {
          "internalType": "uint256",
          "name": "_hid",
          "type": "uint256"
        },
        {
          "internalType": "uint256",
          "name": "_first_time_fee",
          "type": "uint256"
        },
        {
          "internalType": "uint256",
          "name": "_recurring_fee",
          "type": "uint256"
        }
      ],
      "name": "change_doc_profile",
      "outputs": [],
      "payable": false,
      "stateMutability": "nonpayable",
      "type": "function"
    },
    {
      "constant": false,
      "inputs": [
        {
          "internalType": "uint256",
          "name": "_hid",
          "type": "uint256"
        },
        {
          "internalType": "string",
          "name": "_name",
          "type": "string"
        },
        {
          "internalType": "string",
          "name": "_phone",
          "type": "string"
        },
        {
          "internalType": "string",
          "name": "_email",
          "type": "string"
        },
        {
          "internalType": "string",
          "name": "_h_address",
          "type": "string"
        },
        {
          "internalType": "uint16",
          "name": "_est_since",
          "type": "uint16"
        }
      ],
      "name": "change_hospital_profile",
      "outputs": [],
      "payable": false,
      "stateMutability": "nonpayable",
      "type": "function"
    }
  ],
  "bytecode": "0x608060405234801561001057600080fd5b506124f8806100206000396000f3fe608060405234801561001057600080fd5b506004361061009e5760003560e01c80638c51d129116100665780638c51d12914610944578063996440c6146109e85780639a77ff7814610a22578063bf7c631614610c6a578063e23e1bef14610eaa5761009e565b806309fe54ef146100a357806351204efc146102de5780636efb1b841461052657806381dc6fd21461072e57806385c7381d14610915575b600080fd5b6102dc600480360360a08110156100b957600080fd5b810190602081018135600160201b8111156100d357600080fd5b8201836020820111156100e557600080fd5b803590602001918460018302840111600160201b8311171561010657600080fd5b91908080601f0160208091040260200160405190810160405280939291908181526020018383808284376000920191909152509295949360208101935035915050600160201b81111561015857600080fd5b82018360208201111561016a57600080fd5b803590602001918460018302840111600160201b8311171561018b57600080fd5b91908080601f0160208091040260200160405190810160405280939291908181526020018383808284376000920191909152509295949360208101935035915050600160201b8111156101dd57600080fd5b8201836020820111156101ef57600080fd5b803590602001918460018302840111600160201b8311171561021057600080fd5b91908080601f0160208091040260200160405190810160405280939291908181526020018383808284376000920191909152509295949360208101935035915050600160201b81111561026257600080fd5b82018360208201111561027457600080fd5b803590602001918460018302840111600160201b8311171561029557600080fd5b91908080601f0160208091040260200160405190810160405280939291908181526020018383808284376000920191909152509295505050903561ffff169150610f9e9050565b005b6102dc60048036036101008110156102f557600080fd5b810190602081018135600160201b81111561030f57600080fd5b82018360208201111561032157600080fd5b803590602001918460018302840111600160201b8311171561034257600080fd5b91908080601f0160208091040260200160405190810160405280939291908181526020018383808284376000920191909152509295949360208101935035915050600160201b81111561039457600080fd5b8201836020820111156103a657600080fd5b803590602001918460018302840111600160201b831117156103c757600080fd5b91908080601f0160208091040260200160405190810160405280939291908181526020018383808284376000920191909152509295949360208101935035915050600160201b81111561041957600080fd5b82018360208201111561042b57600080fd5b803590602001918460018302840111600160201b8311171561044c57600080fd5b91908080601f0160208091040260200160405190810160405280939291908181526020018383808284376000920191909152509295949360208101935035915050600160201b81111561049e57600080fd5b8201836020820111156104b057600080fd5b803590602001918460018302840111600160201b831117156104d157600080fd5b91908080601f0160208091040260200160405190810160405280939291908181526020018383808284376000920191909152509295505060ff8335169350505060208101359060408101359060600135611340565b6105436004803603602081101561053c57600080fd5b503561191b565b604051808a6001600160a01b03166001600160a01b03168152602001806020018060200180602001806020018960ff1660ff1681526020018860ff1660ff16815260200187815260200186815260200185810385528d818151815260200191508051906020019080838360005b838110156105c85781810151838201526020016105b0565b50505050905090810190601f1680156105f55780820380516001836020036101000a031916815260200191505b5085810384528c5181528c516020918201918e019080838360005b83811015610628578181015183820152602001610610565b50505050905090810190601f1680156106555780820380516001836020036101000a031916815260200191505b5085810383528b5181528b516020918201918d019080838360005b83811015610688578181015183820152602001610670565b50505050905090810190601f1680156106b55780820380516001836020036101000a031916815260200191505b5085810382528a5181528a516020918201918c019080838360005b838110156106e85781810151838201526020016106d0565b50505050905090810190601f1680156107155780820380516001836020036101000a031916815260200191505b509d505050505050505050505050505060405180910390f35b61074b6004803603602081101561074457600080fd5b5035611bb0565b6040805161ffff8086166080830152841660a082015260ff831660c082015260e08082528951908201528851909182916020808401928401916060850191610100860191908e019080838360005b838110156107b1578181015183820152602001610799565b50505050905090810190601f1680156107de5780820380516001836020036101000a031916815260200191505b5085810384528b5181528b516020918201918d019080838360005b838110156108115781810151838201526020016107f9565b50505050905090810190601f16801561083e5780820380516001836020036101000a031916815260200191505b5085810383528a5181528a516020918201918c019080838360005b83811015610871578181015183820152602001610859565b50505050905090810190601f16801561089e5780820380516001836020036101000a031916815260200191505b5085810382528951815289516020918201918b019080838360005b838110156108d15781810151838201526020016108b9565b50505050905090810190601f1680156108fe5780820380516001836020036101000a031916815260200191505b509b50505050505050505050505060405180910390f35b6109326004803603602081101561092b57600080fd5b5035611e42565b60408051918252519081900360200190f35b6109326004803603602081101561095a57600080fd5b810190602081018135600160201b81111561097457600080fd5b82018360208201111561098657600080fd5b803590602001918460018302840111600160201b831117156109a757600080fd5b91908080601f016020809104026020016040519081016040528093929190818152602001838380828437600092019190915250929550611e54945050505050565b610a0e600480360360208110156109fe57600080fd5b50356001600160a01b0316611e71565b604080519115158252519081900360200190f35b6102dc6004803603610100811015610a3957600080fd5b810190602081018135600160201b811115610a5357600080fd5b820183602082011115610a6557600080fd5b803590602001918460018302840111600160201b83111715610a8657600080fd5b91908080601f0160208091040260200160405190810160405280939291908181526020018383808284376000920191909152509295949360208101935035915050600160201b811115610ad857600080fd5b820183602082011115610aea57600080fd5b803590602001918460018302840111600160201b83111715610b0b57600080fd5b91908080601f0160208091040260200160405190810160405280939291908181526020018383808284376000920191909152509295949360208101935035915050600160201b811115610b5d57600080fd5b820183602082011115610b6f57600080fd5b803590602001918460018302840111600160201b83111715610b9057600080fd5b91908080601f0160208091040260200160405190810160405280939291908181526020018383808284376000920191909152509295949360208101935035915050600160201b811115610be257600080fd5b820183602082011115610bf457600080fd5b803590602001918460018302840111600160201b83111715610c1557600080fd5b91908080601f0160208091040260200160405190810160405280939291908181526020018383808284376000920191909152509295505060ff8335169350505060208101359060408101359060600135611e86565b6102dc600480360360c0811015610c8057600080fd5b81359190810190604081016020820135600160201b811115610ca157600080fd5b820183602082011115610cb357600080fd5b803590602001918460018302840111600160201b83111715610cd457600080fd5b91908080601f0160208091040260200160405190810160405280939291908181526020018383808284376000920191909152509295949360208101935035915050600160201b811115610d2657600080fd5b820183602082011115610d3857600080fd5b803590602001918460018302840111600160201b83111715610d5957600080fd5b91908080601f0160208091040260200160405190810160405280939291908181526020018383808284376000920191909152509295949360208101935035915050600160201b811115610dab57600080fd5b820183602082011115610dbd57600080fd5b803590602001918460018302840111600160201b83111715610dde57600080fd5b91908080601f0160208091040260200160405190810160405280939291908181526020018383808284376000920191909152509295949360208101935035915050600160201b811115610e3057600080fd5b820183602082011115610e4257600080fd5b803590602001918460018302840111600160201b83111715610e6357600080fd5b91908080601f0160208091040260200160405190810160405280939291908181526020018383808284376000920191909152509295505050903561ffff1691506120899050565b610f4e60048036036020811015610ec057600080fd5b810190602081018135600160201b811115610eda57600080fd5b820183602082011115610eec57600080fd5b803590602001918460018302840111600160201b83111715610f0d57600080fd5b91908080601f0160208091040260200160405190810160405280939291908181526020018383808284376000920191909152509295506121f2945050505050565b60408051602080825283518183015283519192839290830191858101910280838360005b83811015610f8a578181015183820152602001610f72565b505050509050019250505060405180910390f35b3360009081526003602052604090205460ff16610ffa576040805162461bcd60e51b815260206004820152601560248201527439b2b73232b91034b9b713ba1030903237b1ba37b960591b604482015290519081900360640190fd5b6040805160e08101825286815260208082018790529181018590526060810184905261ffff83166080820152600060a0820181905260c08201819052600580546001818101808455838552855180519597611138979396929593949093027f036b6384b5eca791c62761152d0c79bb0604c104a5fb6f4eb0703f3154bb3db0019261108a92849290910190612428565b5060208281015180516110a39260018501920190612428565b50604082015180516110bf916002840191602090910190612428565b50606082015180516110db916003840191602090910190612428565b506080820151600491909101805460a084015160c09094015161ffff1990911661ffff9384161763ffff000019166201000093909416929092029290921764ff000000001916600160201b60ff90921691909102179055906123ea565b90507f076388e4547480b3e2a5ebd69fad24b054b850e048caffc8d336910ff0e05d7881878787878760008060405180898152602001806020018060200180602001806020018861ffff1661ffff1681526020018761ffff1681526020018660ff16815260200185810385528c818151815260200191508051906020019080838360005b838110156111d45781810151838201526020016111bc565b50505050905090810190601f1680156112015780820380516001836020036101000a031916815260200191505b5085810384528b5181528b516020918201918d019080838360005b8381101561123457818101518382015260200161121c565b50505050905090810190601f1680156112615780820380516001836020036101000a031916815260200191505b5085810383528a5181528a516020918201918c019080838360005b8381101561129457818101518382015260200161127c565b50505050905090810190601f1680156112c15780820380516001836020036101000a031916815260200191505b5085810382528951815289516020918201918b019080838360005b838110156112f45781810151838201526020016112dc565b50505050905090810190601f1680156113215780820380516001836020036101000a031916815260200191505b509c5050505050505050505050505060405180910390a1505050505050565b3360008181526001602052604090205460048054909190811061135f57fe5b60009182526020909120600890910201546001600160a01b031614156113cc576040805162461bcd60e51b815260206004820152601960248201527f446f63746f7220616c7265616479207265676973746572656400000000000000604482015290519081900360640190fd5b604080516101208101825233815260208082018b81529282018a9052606082018990526080820188905260ff871660a0830152600060c0830181905260e083018690526101008301859052600480546001818101808455928452855160089092027f8a35acfbc15ff81a39ae7d344fd709f28e8600b4aa8c65c6b64bfe7fe36bd19b810180546001600160a01b03949094166001600160a01b031990941693909317835596518051949761154c979296949592946114b0937f8a35acfbc15ff81a39ae7d344fd709f28e8600b4aa8c65c6b64bfe7fe36bd19c909201920190612428565b50604082015180516114cc916002840191602090910190612428565b50606082015180516114e8916003840191602090910190612428565b5060808201518051611504916004840191602090910190612428565b5060a082015160058201805460c085015160ff1990911660ff9384161761ff00191661010093909116830217905560e0830151600683015590910151600790910155906123ea565b9050836000808381526020019081526020016000208190555061159b60016005868154811061157757fe5b600091825260209091206005909102016004015462010000900461ffff16906123fc565b600585815481106115a857fe5b906000526020600020906005020160040160026101000a81548161ffff021916908361ffff1602179055508060016000336001600160a01b03166001600160a01b031681526020019081526020016000208190555061166960016002886040518082805190602001908083835b602083106116345780518252601f199092019160209182019101611615565b51815160209384036101000a600019018019909216911617905292019485525060405193849003019092205492915050612419565b6002876040518082805190602001908083835b6020831061169b5780518252601f19909201916020918201910161167c565b6001836020036101000a038019825116818451168082178552505050505050905001915050908152602001604051809103902081905550600160036000336001600160a01b03166001600160a01b0316815260200190815260200160002060006101000a81548160ff0219169083151502179055507f1252579404c84e8f1111370f83c9a093bf4015099a9d8a6cb867b84b6a3205cb818a8a8a8a8a60008a8a604051808a8152602001806020018060200180602001806020018960ff1660ff1681526020018860ff16815260200187815260200186815260200185810385528d818151815260200191508051906020019080838360005b838110156117ab578181015183820152602001611793565b50505050905090810190601f1680156117d85780820380516001836020036101000a031916815260200191505b5085810384528c5181528c516020918201918e019080838360005b8381101561180b5781810151838201526020016117f3565b50505050905090810190601f1680156118385780820380516001836020036101000a031916815260200191505b5085810383528b5181528b516020918201918d019080838360005b8381101561186b578181015183820152602001611853565b50505050905090810190601f1680156118985780820380516001836020036101000a031916815260200191505b5085810382528a5181528a516020918201918c019080838360005b838110156118cb5781810151838201526020016118b3565b50505050905090810190601f1680156118f85780820380516001836020036101000a031916815260200191505b509d505050505050505050505050505060405180910390a1505050505050505050565b6004818154811061192857fe5b600091825260209182902060089091020180546001808301805460408051601f60026000199685161561010002969096019093169490940491820187900487028401870190528083526001600160a01b0390931695509293909291908301828280156119d55780601f106119aa576101008083540402835291602001916119d5565b820191906000526020600020905b8154815290600101906020018083116119b857829003601f168201915b50505060028085018054604080516020601f6000196101006001871615020190941695909504928301859004850281018501909152818152959695945090925090830182828015611a675780601f10611a3c57610100808354040283529160200191611a67565b820191906000526020600020905b815481529060010190602001808311611a4a57829003601f168201915b5050505060038301805460408051602060026001851615610100026000190190941693909304601f8101849004840282018401909252818152949594935090830182828015611af75780601f10611acc57610100808354040283529160200191611af7565b820191906000526020600020905b815481529060010190602001808311611ada57829003601f168201915b5050505060048301805460408051602060026001851615610100026000190190941693909304601f8101849004840282018401909252818152949594935090830182828015611b875780601f10611b5c57610100808354040283529160200191611b87565b820191906000526020600020905b815481529060010190602001808311611b6a57829003601f168201915b50505060058401546006850154600790950154939460ff80831695610100909304169350915089565b60058181548110611bbd57fe5b60009182526020918290206005919091020180546040805160026001841615610100026000190190931692909204601f810185900485028301850190915280825291935091839190830182828015611c565780601f10611c2b57610100808354040283529160200191611c56565b820191906000526020600020905b815481529060010190602001808311611c3957829003601f168201915b505050505090806001018054600181600116156101000203166002900480601f016020809104026020016040519081016040528092919081815260200182805460018160011615610100020316600290048015611cf45780601f10611cc957610100808354040283529160200191611cf4565b820191906000526020600020905b815481529060010190602001808311611cd757829003601f168201915b50505060028085018054604080516020601f6000196101006001871615020190941695909504928301859004850281018501909152818152959695945090925090830182828015611d865780601f10611d5b57610100808354040283529160200191611d86565b820191906000526020600020905b815481529060010190602001808311611d6957829003601f168201915b5050505060038301805460408051602060026001851615610100026000190190941693909304601f8101849004840282018401909252818152949594935090830182828015611e165780601f10611deb57610100808354040283529160200191611e16565b820191906000526020600020905b815481529060010190602001808311611df957829003601f168201915b5050506004909301549192505061ffff808216916201000081049091169060ff600160201b9091041687565b60006020819052908152604090205481565b805160208183018101805160028252928201919093012091525481565b60036020526000908152604090205460ff1681565b33600081815260016020526040902054600480549091908110611ea557fe5b60009182526020909120600890910201546001600160a01b031614611f11576040805162461bcd60e51b815260206004820152601860248201527f446f63746f72206861736e277420726567697374657265640000000000000000604482015290519081900360640190fd5b33600090815260016020526040902054600480548a919083908110611f3257fe5b90600052602060002090600802016001019080519060200190611f56929190612428565b508760048281548110611f6557fe5b90600052602060002090600802016002019080519060200190611f89929190612428565b508660048281548110611f9857fe5b90600052602060002090600802016003019080519060200190611fbc929190612428565b508560048281548110611fcb57fe5b90600052602060002090600802016004019080519060200190611fef929190612428565b508460048281548110611ffe57fe5b906000526020600020906008020160050160006101000a81548160ff021916908360ff160217905550826004828154811061203557fe5b906000526020600020906008020160060181905550816004828154811061205857fe5b6000918252602080832060076008909302019190910192909255918252819052604090209290925550505050505050565b3360009081526003602052604090205460ff166120e5576040805162461bcd60e51b815260206004820152601560248201527439b2b73232b91034b9b713ba1030903237b1ba37b960591b604482015290519081900360640190fd5b84600587815481106120f357fe5b90600052602060002090600502016000019080519060200190612117929190612428565b50836005878154811061212657fe5b9060005260206000209060050201600101908051906020019061214a929190612428565b50826005878154811061215957fe5b9060005260206000209060050201600201908051906020019061217d929190612428565b50816005878154811061218c57fe5b906000526020600020906005020160030190805190602001906121b0929190612428565b5080600587815481106121bf57fe5b906000526020600020906005020160040160006101000a81548161ffff021916908361ffff160217905550505050505050565b6060806002836040518082805190602001908083835b602083106122275780518252601f199092019160209182019101612208565b51815160209384036101000a60001901801990921691161790529201948552506040805194859003820185205480865280830286019092019052915050801561227a578160200160208202803883390190505b50905060005b6004548110156123e3576000809050846040516020018082805190602001908083835b602083106122c25780518252601f1990920191602091820191016122a3565b6001836020036101000a0380198251168184511680821785525050505050509050019150506040516020818303038152906040528051906020012060001c6004838154811061230d57fe5b9060005260206000209060080201600401604051602001808280546001816001161561010002031660029004801561237c5780601f1061235a57610100808354040283529182019161237c565b820191906000526020600020905b815481529060010190602001808311612368575b50509150506040516020818303038152906040528051906020012060001c14156123cb57818382815181106123ad57fe5b60209081029190910101526123c981600163ffffffff61241916565b015b506123dd81600163ffffffff61241916565b01612280565b5092915050565b6000828211156123f657fe5b50900390565b600082820161ffff808516908216101561241257fe5b9392505050565b60008282018381101561241257fe5b828054600181600116156101000203166002900490600052602060002090601f016020900481019282601f1061246957805160ff1916838001178555612496565b82800160010185558215612496579182015b8281111561249657825182559160200191906001019061247b565b506124a29291506124a6565b5090565b6124c091905b808211156124a257600081556001016124ac565b9056fea265627a7a723158202d5906ad58cb261540079dfdfc34af7f163a12f33bb064d0ffc05b6685c5d76864736f6c63430005100032",
  "source": "pragma solidity >= 0.5.0 < 0.7.0;\r\n\r\nimport \"./safemath.sol\";\r\n\r\n/**\r\n * @title DoctorManagement\r\n * @dev Stores doctors data publicly and provide functions to acess data conviniently\r\n */\r\ncontract DoctorManagement{\r\n    using SafeMath for uint256;\r\n    using SafeMath32 for uint32;\r\n    using SafeMath16 for uint16;\r\n    using SafeMath8 for uint8;\r\n\r\n    /**\r\n    * @dev event: New doctor data added to blockchain\r\n    */\r\n    event NewDoctor(uint doctorID,\r\n                    string name,\r\n                    string phone,\r\n                    string email,\r\n                    string spec,\r\n                    uint8 expr_yrs,\r\n                    uint8 avg_rating,\r\n                    uint first_time_fee,\r\n                    uint recurring_fee);\r\n\r\n    /**\r\n    * @dev event: New hospital data added to blockchain\r\n    */\r\n    event NewHospital(uint HospitalID,\r\n                      string name,\r\n                      string phone,\r\n                      string email,\r\n                      string h_addr,\r\n                      uint16 est_since,\r\n                      uint16 total_docs,\r\n                      uint8 avg_rating);\r\n    struct Doctor{\r\n        address payable doctor_account;\r\n        string name;\r\n        string phone;\r\n        string email;\r\n        string specialization;\r\n        uint8 experience_yrs;\r\n        uint8 avg_rating;\r\n        uint first_time_fee;\r\n        uint recurring_fee;\r\n    }\r\n    struct Hospital{\r\n        string name;\r\n        string phone;\r\n        string email;\r\n        string h_address;\r\n        uint16 established_since;\r\n        uint16 total_doctors;\r\n        uint8 avg_rating;\r\n    }\r\n\r\n    mapping (uint => uint) public doctorToHospital;\r\n    mapping (address => uint) internal doctorAddressToID;\r\n    mapping (string => uint) public specializedDoctorCount;\r\n    mapping(address => bool) public isDoctor;\r\n    Doctor[] public doctors;\r\n    Hospital[] public hospitals;\r\n\r\n    modifier onlyDoctor(){\r\n        require(isDoctor[msg.sender], \"sender isn't a doctor\");\r\n        _;\r\n    }\r\n\r\n    /**\r\n    * @dev list of doctors by specializations\r\n    */\r\n    function spec_to_doc(string memory _specialization)\r\n             public\r\n             view\r\n             returns(uint[] memory)\r\n    {\r\n        uint[] memory docs = new uint[](specializedDoctorCount[_specialization]);\r\n        for(uint i = 0; i<doctors.length; i += i.add(1)){\r\n            uint counter = 0;\r\n            if(uint(keccak256(abi.encodePacked(doctors[i].specialization))) == uint(keccak256(abi.encodePacked(_specialization)))){\r\n                docs[counter] = i;\r\n                counter += counter.add(1);\r\n            }\r\n        }\r\n        return docs;\r\n    }\r\n\r\n    /**\r\n    * @dev add data of new doctor to blockchain\r\n    */\r\n    function add_doc(string memory _name,\r\n                     string memory _phone,\r\n                     string memory _email,\r\n                     string memory _spec,\r\n                     uint8 _exp_yrs,\r\n                     uint _hid,\r\n                     uint _first_time_fee,\r\n                     uint _recurring_fee\r\n                     )\r\n             public\r\n    {\r\n        require(doctors[doctorAddressToID[msg.sender]].doctor_account != msg.sender,  \"Doctor already registered\");\r\n        uint id = doctors.push(Doctor(msg.sender,\r\n                                      _name,\r\n                                      _phone,\r\n                                      _email,\r\n                                      _spec,\r\n                                      _exp_yrs,\r\n                                      0,\r\n                                      _first_time_fee,\r\n                                      _recurring_fee)).sub(1);\r\n        doctorToHospital[id] = _hid;\r\n        hospitals[_hid].total_doctors = hospitals[_hid].total_doctors.add(1);\r\n        doctorAddressToID[msg.sender] = id;\r\n        specializedDoctorCount[_spec] = specializedDoctorCount[_spec].add(1);\r\n        isDoctor[msg.sender] = true;\r\n        emit NewDoctor(id, _name, _phone, _email, _spec, _exp_yrs, 0, _first_time_fee, _recurring_fee);\r\n    }\r\n\r\n    /**\r\n    * @dev add data of new hospital to blockchain\r\n    */\r\n    function add_hospital(string memory _name,\r\n                          string memory _phone,\r\n                          string memory _email,\r\n                          string memory _h_address,\r\n                          uint16 _est_since)\r\n             public\r\n             onlyDoctor\r\n    {\r\n        // check duplicate hospital in frontend cause gas expensive\r\n        uint id = hospitals.push(Hospital(_name, _phone, _email, _h_address, _est_since, 0, 0)).sub(1);\r\n        emit NewHospital(id, _name, _phone, _email, _h_address, _est_since, 0, 0);\r\n    }\r\n\r\n    function change_doc_profile(string memory _name,\r\n                                string memory _phone,\r\n                                string memory _email,\r\n                                string memory _spec,\r\n                                uint8 _experience_yrs,\r\n                                uint _hid,\r\n                                uint _first_time_fee,\r\n                                uint _recurring_fee)\r\n             public\r\n    {\r\n        require(doctors[doctorAddressToID[msg.sender]].doctor_account == msg.sender,  \"Doctor hasn't registered\");\r\n        uint id = doctorAddressToID[msg.sender];\r\n        doctors[id].name = _name;\r\n        doctors[id].phone = _phone;\r\n        doctors[id].email = _email;\r\n        doctors[id].specialization = _spec;\r\n        doctors[id].experience_yrs = _experience_yrs;\r\n        doctors[id].first_time_fee = _first_time_fee;\r\n        doctors[id].recurring_fee = _recurring_fee;\r\n        doctorToHospital[id] = _hid;\r\n    }\r\n\r\n    function change_hospital_profile(uint _hid,\r\n                                     string memory _name,\r\n                                     string memory _phone,\r\n                                     string memory _email,\r\n                                     string memory _h_address,\r\n                                     uint16 _est_since)\r\n             public\r\n             onlyDoctor\r\n    {\r\n        hospitals[_hid].name = _name;\r\n        hospitals[_hid].phone = _phone;\r\n        hospitals[_hid].email = _email;\r\n        hospitals[_hid].h_address = _h_address;\r\n        hospitals[_hid].established_since = _est_since;\r\n    }\r\n}",
  "sourcePath": "C:\\Users\\vatsal\\Desktop\\New folder\\dot_slash\\contracts\\doctors.sol",
  "compiler": {
    "name": "solc",
    "version": "0.5.16+commit.9c3226ce.Emscripten.clang"
  },
  "schemaVersion": "3.0.21",
  "updatedAt": "2020-01-19T06:10:41.604Z",
  "networkType": "ethereum",
  "devdoc": {
    "details": "Stores doctors data publicly and provide functions to acess data conviniently",
    "methods": {
      "add_doc(string,string,string,string,uint8,uint256,uint256,uint256)": {
        "details": "add data of new doctor to blockchain"
      },
      "add_hospital(string,string,string,string,uint16)": {
        "details": "add data of new hospital to blockchain"
      },
      "spec_to_doc(string)": {
        "details": "list of doctors by specializations"
      }
    },
    "title": "DoctorManagement"
  },
  "userdoc": {
    "methods": {}
  }
}