{
  "contractName": "PatientManagement",
  "abi": [
    {
      "anonymous": false,
      "inputs": [
        {
          "indexed": false,
          "internalType": "address",
          "name": "patient_account",
          "type": "address"
        },
        {
          "indexed": false,
          "internalType": "uint256",
          "name": "patientID",
          "type": "uint256"
        },
        {
          "indexed": false,
          "internalType": "string",
          "name": "patient_addr",
          "type": "string"
        },
        {
          "indexed": false,
          "internalType": "string",
          "name": "name",
          "type": "string"
        },
        {
          "indexed": false,
          "internalType": "string",
          "name": "phone",
          "type": "string"
        },
        {
          "indexed": false,
          "internalType": "string",
          "name": "email",
          "type": "string"
        },
        {
          "indexed": false,
          "internalType": "uint32",
          "name": "dob",
          "type": "uint32"
        },
        {
          "indexed": false,
          "internalType": "string",
          "name": "gender",
          "type": "string"
        }
      ],
      "name": "NewPatient",
      "type": "event"
    },
    {
      "constant": false,
      "inputs": [
        {
          "internalType": "string",
          "name": "_address",
          "type": "string"
        },
        {
          "internalType": "string",
          "name": "_name",
          "type": "string"
        },
        {
          "internalType": "string",
          "name": "_phone",
          "type": "string"
        },
        {
          "internalType": "string",
          "name": "_email",
          "type": "string"
        },
        {
          "internalType": "uint32",
          "name": "_dob",
          "type": "uint32"
        },
        {
          "internalType": "string",
          "name": "_gender",
          "type": "string"
        }
      ],
      "name": "add_patient",
      "outputs": [],
      "payable": false,
      "stateMutability": "nonpayable",
      "type": "function"
    },
    {
      "constant": false,
      "inputs": [
        {
          "internalType": "uint256",
          "name": "_did",
          "type": "uint256"
        }
      ],
      "name": "authorize",
      "outputs": [],
      "payable": false,
      "stateMutability": "nonpayable",
      "type": "function"
    },
    {
      "constant": true,
      "inputs": [],
      "name": "show_patient_profile",
      "outputs": [
        {
          "internalType": "string",
          "name": "_address",
          "type": "string"
        },
        {
          "internalType": "string",
          "name": "_name",
          "type": "string"
        },
        {
          "internalType": "string",
          "name": "_phone",
          "type": "string"
        },
        {
          "internalType": "string",
          "name": "_email",
          "type": "string"
        },
        {
          "internalType": "string",
          "name": "_gender",
          "type": "string"
        },
        {
          "internalType": "uint32",
          "name": "_dob",
          "type": "uint32"
        }
      ],
      "payable": false,
      "stateMutability": "view",
      "type": "function"
    },
    {
      "constant": false,
      "inputs": [
        {
          "internalType": "string",
          "name": "_address",
          "type": "string"
        },
        {
          "internalType": "string",
          "name": "_name",
          "type": "string"
        },
        {
          "internalType": "string",
          "name": "_phone",
          "type": "string"
        },
        {
          "internalType": "string",
          "name": "_email",
          "type": "string"
        },
        {
          "internalType": "uint32",
          "name": "_dob",
          "type": "uint32"
        },
        {
          "internalType": "string",
          "name": "_gender",
          "type": "string"
        }
      ],
      "name": "change_patient_profile",
      "outputs": [],
      "payable": false,
      "stateMutability": "nonpayable",
      "type": "function"
    }
  ],
  "bytecode": "0x608060405234801561001057600080fd5b50611668806100206000396000f3fe608060405234801561001057600080fd5b506004361061004c5760003560e01c806353b17059146100515780638f30aa53146103195780639a8baedf146105df578063e9e01edd146105fc575b600080fd5b610317600480360360c081101561006757600080fd5b810190602081018135600160201b81111561008157600080fd5b82018360208201111561009357600080fd5b803590602001918460018302840111600160201b831117156100b457600080fd5b91908080601f0160208091040260200160405190810160405280939291908181526020018383808284376000920191909152509295949360208101935035915050600160201b81111561010657600080fd5b82018360208201111561011857600080fd5b803590602001918460018302840111600160201b8311171561013957600080fd5b91908080601f0160208091040260200160405190810160405280939291908181526020018383808284376000920191909152509295949360208101935035915050600160201b81111561018b57600080fd5b82018360208201111561019d57600080fd5b803590602001918460018302840111600160201b831117156101be57600080fd5b91908080601f0160208091040260200160405190810160405280939291908181526020018383808284376000920191909152509295949360208101935035915050600160201b81111561021057600080fd5b82018360208201111561022257600080fd5b803590602001918460018302840111600160201b8311171561024357600080fd5b91908080601f016020809104026020016040519081016040528093929190818152602001838380828437600092019190915250929563ffffffff853516959094909350604081019250602001359050600160201b8111156102a357600080fd5b8201836020820111156102b557600080fd5b803590602001918460018302840111600160201b831117156102d657600080fd5b91908080601f016020809104026020016040519081016040528093929190818152602001838380828437600092019190915250929550610827945050505050565b005b610317600480360360c081101561032f57600080fd5b810190602081018135600160201b81111561034957600080fd5b82018360208201111561035b57600080fd5b803590602001918460018302840111600160201b8311171561037c57600080fd5b91908080601f0160208091040260200160405190810160405280939291908181526020018383808284376000920191909152509295949360208101935035915050600160201b8111156103ce57600080fd5b8201836020820111156103e057600080fd5b803590602001918460018302840111600160201b8311171561040157600080fd5b91908080601f0160208091040260200160405190810160405280939291908181526020018383808284376000920191909152509295949360208101935035915050600160201b81111561045357600080fd5b82018360208201111561046557600080fd5b803590602001918460018302840111600160201b8311171561048657600080fd5b91908080601f0160208091040260200160405190810160405280939291908181526020018383808284376000920191909152509295949360208101935035915050600160201b8111156104d857600080fd5b8201836020820111156104ea57600080fd5b803590602001918460018302840111600160201b8311171561050b57600080fd5b91908080601f016020809104026020016040519081016040528093929190818152602001838380828437600092019190915250929563ffffffff853516959094909350604081019250602001359050600160201b81111561056b57600080fd5b82018360208201111561057d57600080fd5b803590602001918460018302840111600160201b8311171561059e57600080fd5b91908080601f016020809104026020016040519081016040528093929190818152602001838380828437600092019190915250929550610e08945050505050565b610317600480360360208110156105f557600080fd5b50356110d6565b6106046110f6565b6040518080602001806020018060200180602001806020018763ffffffff1663ffffffff16815260200186810386528c818151815260200191508051906020019080838360005b8381101561066357818101518382015260200161064b565b50505050905090810190601f1680156106905780820380516001836020036101000a031916815260200191505b5086810385528b5181528b516020918201918d019080838360005b838110156106c35781810151838201526020016106ab565b50505050905090810190601f1680156106f05780820380516001836020036101000a031916815260200191505b5086810384528a5181528a516020918201918c019080838360005b8381101561072357818101518382015260200161070b565b50505050905090810190601f1680156107505780820380516001836020036101000a031916815260200191505b5086810383528951815289516020918201918b019080838360005b8381101561078357818101518382015260200161076b565b50505050905090810190601f1680156107b05780820380516001836020036101000a031916815260200191505b5086810382528851815288516020918201918a019080838360005b838110156107e35781810151838201526020016107cb565b50505050905090810190601f1680156108105780820380516001836020036101000a031916815260200191505b509b50505050505050505050505060405180910390f35b336000818152600160205260408120548154811061084157fe5b60009182526020909120600690910201546001600160a01b031614156108ae576040805162461bcd60e51b815260206004820152601e60248201527f70617469656e742068617320616c726561647920726567697374657265640000604482015290519081900360640190fd5b60006040516020018080634d616c6560e01b81525060040190506040516020818303038152906040528051906020012060001c826040516020018082805190602001908083835b602083106109145780518252601f1990920191602091820191016108f5565b6001836020036101000a0380198251168184511680821785525050505050509050019150506040516020818303038152906040528051906020012060001c141561096057506000610a16565b60405160200180806546656d616c6560d01b81525060060190506040516020818303038152906040528051906020012060001c826040516020018082805190602001908083835b602083106109c65780518252601f1990920191602091820191016109a7565b6001836020036101000a0380198251168184511680821785525050505050509050019150506040516020818303038152906040528051906020012060001c1415610a1257506001610a16565b5060025b6000610b67600160006040518060e00160405280336001600160a01b031681526020018c81526020018b81526020018a81526020018981526020018863ffffffff168152602001866002811115610a6957fe5b9052815460018082018085556000948552602094859020845160069094020180546001600160a01b0319166001600160a01b039094169390931783558385015180519195610abc93850192910190611542565b5060408201518051610ad8916002840191602090910190611542565b5060608201518051610af4916003840191602090910190611542565b5060808201518051610b10916004840191602090910190611542565b5060a082015160058201805463ffffffff191663ffffffff9092169190911780825560c0840151919064ff000000001916600160201b836002811115610b5257fe5b0217905550505061153090919063ffffffff16565b90508060016000336001600160a01b03166001600160a01b03168152602001908152602001600020819055507f5cc29af23d12a2c13b13df0015cbda28539bedd30f1b1a747f48d370c18e5c5e33828a8a8a8a8a8a60405180896001600160a01b03166001600160a01b03168152602001888152602001806020018060200180602001806020018763ffffffff1663ffffffff1681526020018060200186810386528c818151815260200191508051906020019080838360005b83811015610c39578181015183820152602001610c21565b50505050905090810190601f168015610c665780820380516001836020036101000a031916815260200191505b5086810385528b5181528b516020918201918d019080838360005b83811015610c99578181015183820152602001610c81565b50505050905090810190601f168015610cc65780820380516001836020036101000a031916815260200191505b5086810384528a5181528a516020918201918c019080838360005b83811015610cf9578181015183820152602001610ce1565b50505050905090810190601f168015610d265780820380516001836020036101000a031916815260200191505b5086810383528951815289516020918201918b019080838360005b83811015610d59578181015183820152602001610d41565b50505050905090810190601f168015610d865780820380516001836020036101000a031916815260200191505b50868103825287518152875160209182019189019080838360005b83811015610db9578181015183820152602001610da1565b50505050905090810190601f168015610de65780820380516001836020036101000a031916815260200191505b509d505050505050505050505050505060405180910390a15050505050505050565b60006040516020018080634d616c6560e01b81525060040190506040516020818303038152906040528051906020012060001c826040516020018082805190602001908083835b60208310610e6e5780518252601f199092019160209182019101610e4f565b6001836020036101000a0380198251168184511680821785525050505050509050019150506040516020818303038152906040528051906020012060001c1415610eba57506000610f70565b60405160200180806546656d616c6560d01b81525060060190506040516020818303038152906040528051906020012060001c826040516020018082805190602001908083835b60208310610f205780518252601f199092019160209182019101610f01565b6001836020036101000a0380198251168184511680821785525050505050509050019150506040516020818303038152906040528051906020012060001c1415610f6c57506001610f70565b5060025b3360009081526001602052604081205481549091899183908110610f9057fe5b90600052602060002090600602016001019080519060200190610fb4929190611542565b508660008281548110610fc357fe5b90600052602060002090600602016002019080519060200190610fe7929190611542565b508560008281548110610ff657fe5b9060005260206000209060060201600301908051906020019061101a929190611542565b50846000828154811061102957fe5b9060005260206000209060060201600401908051906020019061104d929190611542565b50836000828154811061105c57fe5b906000526020600020906006020160050160006101000a81548163ffffffff021916908363ffffffff160217905550816000828154811061109957fe5b60009182526020909120600560069092020101805464ff000000001916600160201b8360028111156110c757fe5b02179055505050505050505050565b336000908152600160209081526040808320549383526002909152902055565b3360008181526001602052604081205481546060938493849384938493918391811061111e57fe5b60009182526020909120600690910201546001600160a01b03161461118a576040805162461bcd60e51b815260206004820152601960248201527f70617469656e74206861736e2774207265676973746572656400000000000000604482015290519081900360640190fd5b6111926115c0565b33600090815260016020526040812054815481106111ac57fe5b60009182526020918290206040805160e081018252600690930290910180546001600160a01b03168352600180820180548451601f600260001995841615610100029590950190921693909304908101879004870283018701909452838252939491938583019391929091908301828280156112695780601f1061123e57610100808354040283529160200191611269565b820191906000526020600020905b81548152906001019060200180831161124c57829003601f168201915b5050509183525050600282810180546040805160206001841615610100026000190190931694909404601f810183900483028501830190915280845293810193908301828280156112fb5780601f106112d0576101008083540402835291602001916112fb565b820191906000526020600020905b8154815290600101906020018083116112de57829003601f168201915b505050918352505060038201805460408051602060026001851615610100026000190190941693909304601f810184900484028201840190925281815293820193929183018282801561138f5780601f106113645761010080835404028352916020019161138f565b820191906000526020600020905b81548152906001019060200180831161137257829003601f168201915b505050918352505060048201805460408051602060026001851615610100026000190190941693909304601f81018490048402820184019092528181529382019392918301828280156114235780601f106113f857610100808354040283529160200191611423565b820191906000526020600020905b81548152906001019060200180831161140657829003601f168201915b5050509183525050600582015463ffffffff81166020830152604090910190600160201b900460ff16600281111561145757fe5b600281111561146257fe5b905250602081015160408201516060830151608084015160a0850151939b50919950975095509250905060008160c00151600281111561149e57fe5b14156114c857604051806040016040528060048152602001634d616c6560e01b8152509250611527565b60018160c0015160028111156114da57fe5b1415611506576040518060400160405280600681526020016546656d616c6560d01b8152509250611527565b6040518060400160405280600581526020016427ba3432b960d91b81525092505b50909192939495565b60008282111561153c57fe5b50900390565b828054600181600116156101000203166002900490600052602060002090601f016020900481019282601f1061158357805160ff19168380011785556115b0565b828001600101855582156115b0579182015b828111156115b0578251825591602001919060010190611595565b506115bc929150611616565b5090565b6040518060e0016040528060006001600160a01b0316815260200160608152602001606081526020016060815260200160608152602001600063ffffffff1681526020016000600281111561161157fe5b905290565b61163091905b808211156115bc576000815560010161161c565b9056fea265627a7a72315820aba8f638103c6137a318156eab42203704ee5bd91e5e03d3d46693306420ebc564736f6c63430005100032",
  "source": "pragma solidity >= 0.5.0 < 0.7.0;\r\n\r\nimport \"./safemath.sol\";\r\n\r\n/**\r\n * @title PatientManagement\r\n * @dev Stores patients data privately and provide functions to acess data\r\n */\r\ncontract PatientManagement{\r\n    enum gender_type {Male, Female, Other}\r\n    using SafeMath for uint256;\r\n    using SafeMath32 for uint32;\r\n    using SafeMath16 for uint16;\r\n    using SafeMath8 for uint8;\r\n\r\n    /**\r\n    * @dev event: New patient data added to blockchain\r\n    */\r\n    event NewPatient(address patient_account,\r\n                     uint patientID,\r\n                     string patient_addr,\r\n                     string name,\r\n                     string phone,\r\n                     string email,\r\n                     uint32 dob,\r\n                     string gender);\r\n    struct Patient{\r\n        address payable patient_account;\r\n        string patient_addr;\r\n        string name;\r\n        string phone;\r\n        string email;\r\n        uint32 dob;\r\n        gender_type gender;\r\n    }\r\n\r\n    Patient[] internal patients;\r\n    mapping (address => uint) internal patientAddressToID;\r\n    mapping(uint => uint) internal authorizations;\r\n\r\n    /**\r\n    * @dev add data of new patient to blockchain\r\n    */\r\n    function add_patient(string memory _address,\r\n                         string memory _name,\r\n                         string memory _phone,\r\n                         string memory _email,\r\n                         uint32 _dob,\r\n                         string memory _gender)\r\n             public\r\n    {\r\n        require((patients[patientAddressToID[msg.sender]].patient_account != msg.sender), \"patient has already registered\");\r\n        gender_type sex;\r\n        if(uint(keccak256(abi.encodePacked(_gender))) == uint(keccak256(abi.encodePacked(\"Male\")))){\r\n            sex = gender_type.Male;\r\n        }\r\n        else if(uint(keccak256(abi.encodePacked(_gender))) == uint(keccak256(abi.encodePacked(\"Female\")))){\r\n            sex = gender_type.Female;\r\n        }\r\n        else{\r\n            sex = gender_type.Other;\r\n        }\r\n        uint id = patients.push(Patient(msg.sender, _address, _name, _phone, _email, _dob, sex)).sub(1);\r\n        patientAddressToID[msg.sender] = id;\r\n        emit NewPatient(msg.sender, id, _address, _name, _phone, _email, _dob, _gender);\r\n    }\r\n\r\n    /**\r\n    * @dev Authorize doctor to view patients health report\r\n    */\r\n    function authorize(uint _did) public{\r\n        uint pid = patientAddressToID[msg.sender];\r\n        authorizations[_did] = pid;\r\n    }\r\n\r\n    /**\r\n    * @dev show sender's profile if sender has registered\r\n    */\r\n    function show_patient_profile()\r\n             public\r\n             view\r\n             returns(string memory _address,\r\n                     string memory _name,\r\n                     string memory _phone,\r\n                     string memory _email,\r\n                     string memory _gender,\r\n                     uint32 _dob)\r\n    {\r\n        require((patients[patientAddressToID[msg.sender]].patient_account == msg.sender), \"patient hasn't registered\");\r\n        Patient memory profile = patients[patientAddressToID[msg.sender]];\r\n        _address = profile.patient_addr;\r\n        _name = profile.name;\r\n        _phone = profile.phone;\r\n        _email = profile.email;\r\n        _dob = profile.dob;\r\n        if(profile.gender == gender_type.Male){\r\n            _gender = \"Male\";\r\n        }\r\n        else if(profile.gender == gender_type.Female){\r\n            _gender = \"Female\";\r\n        }\r\n        else{\r\n            _gender = \"Other\";\r\n        }\r\n    }\r\n\r\n    function change_patient_profile(string memory _address,\r\n                                    string memory _name,\r\n                                    string memory _phone,\r\n                                    string memory _email,\r\n                                    uint32 _dob,\r\n                                    string memory _gender)\r\n             public\r\n    {\r\n        //require((patients[patientAddressToID[msg.sender]].patient_account == msg.sender), \"patient hasn't registered\");\r\n        gender_type sex;\r\n        if(uint(keccak256(abi.encodePacked(_gender))) == uint(keccak256(abi.encodePacked(\"Male\")))){\r\n            sex = gender_type.Male;\r\n        }\r\n        else if(uint(keccak256(abi.encodePacked(_gender))) == uint(keccak256(abi.encodePacked(\"Female\")))){\r\n            sex = gender_type.Female;\r\n        }\r\n        else{\r\n            sex = gender_type.Other;\r\n        }\r\n        uint id = patientAddressToID[msg.sender];\r\n        patients[id].patient_addr = _address;\r\n        patients[id].name = _name;\r\n        patients[id].phone = _phone;\r\n        patients[id].email = _email;\r\n        patients[id].dob = _dob;\r\n        patients[id].gender = sex;\r\n    }\r\n\r\n}",
  "sourcePath": "C:\\Users\\vatsal\\Desktop\\New folder\\dot_slash\\contracts\\patients.sol",
  "compiler": {
    "name": "solc",
    "version": "0.5.16+commit.9c3226ce.Emscripten.clang"
  },
  "schemaVersion": "3.0.21",
  "updatedAt": "2020-01-19T06:17:32.948Z",
  "networkType": "ethereum",
  "devdoc": {
    "details": "Stores patients data privately and provide functions to acess data",
    "methods": {
      "add_patient(string,string,string,string,uint32,string)": {
        "details": "add data of new patient to blockchain"
      },
      "authorize(uint256)": {
        "details": "Authorize doctor to view patients health report"
      },
      "show_patient_profile()": {
        "details": "show sender's profile if sender has registered"
      }
    },
    "title": "PatientManagement"
  },
  "userdoc": {
    "methods": {}
  }
}